:020000040800F2
:10000000D81600200D0F0008B1020008B302000846
:10001000B7020008BB020008BF0200080000000091
:10002000000000000000000000000000C302000803
:10003000C502000800000000C7020008C50B000848
:10004000270F0008270F0008270F0008270F0008B8
:10005000270F0008270F0008270F0008270F0008A8
:10006000270F0008270F0008270F0008270F000898
:10007000270F0008270F0008270F0008270F000888
:10008000270F0008270F0008270F0008270F000878
:10009000270F0008270F0008270F0008270F000868
:1000A000270F0008270F0008270F0008270F000858
:1000B000270F0008270F0008270F0008270F000848
:1000C000270F0008270F0008270F0008270F000838
:1000D000270F0008EF0D00086B0E0008270F00081F
:1000E000270F0008270F0008270F0008270F000818
:1000F000270F0008270F0008270F0008270F000808
:10010000270F0008270F0008270F0008270F0008F7
:10011000270F0008270F0008270F0008270F0008E7
:10012000270F0008270F0008270F0008270F0008D7
:1001300000F002F800F03AF80AA090E8000C8244BF
:100140008344AAF10107DA4501D100F02FF8AFF29C
:10015000090EBAE80F0013F0010F18BFFB1A43F0A5
:1001600001031847581D0000781D0000103A24BFF5
:1001700078C878C1FAD8520724BF30C830C144BF0C
:1001800004680C607047000000230024002500264E
:10019000103A28BF78C1FBD8520728BF30C148BFEA
:1001A0000B6070471FB51FBD10B510BD01F028FDD5
:1001B0001146FFF7F7FF00F009F801F05AFD03B40C
:1001C000FFF7F2FF03BC00F011FD000000F078FC27
:1001D0004FF4A06001F03EFC4FF4E13000F015FD5B
:1001E0004FF4E13000F05DFD00F060F900F0C4FB79
:1001F00044E02348008800F40040E8B12048057836
:1002000020A001F097FC00240DE02348005D234965
:10021000088000BF2148001F008800F0400000282F
:10022000F8D0601CC4B2AC42EFDB1DA001F082FC30
:1002300000201349088021E0642000F07EFC322079
:1002400000F0E9FA002819DC174E00240CE000BF8A
:100250001248001F008800F040000028F8D0305DF0
:100260000E490880601CC4B2302CF0D30F480068DF
:1002700008B9012000E000200C490860B9E700003F
:100280002C0000200D0AC4FAB7A2CBCDB5C4CFFB19
:10029000CFA2CEAA3A0D0A00D800002004380140AF
:1002A0000D0A0D0A00000000A800002088812242EB
:1002B000704700BFFEE700BFFEE700BFFEE700BFDC
:1002C000FEE7704770477047704700000CB500208C
:1002D000019000906C48006840F480306A490860E2
:1002E00000BF6948006800F4003000900198401C8D
:1002F0000190009818B90198B0F5A06FF1D162484B
:10030000006800F4003010B10120009001E00020EE
:1003100000900098012843D15C48006840F010002C
:100320005A4908600846006820F003000860084643
:10033000006840F002000860534840685249486035
:100340000846406848600846406840F4806048605D
:100350000846406820F47C1048600846406840F435
:10036000E81048600846006840F08070086000BFF0
:100370004548006800F000700028F9D04248406805
:1003800020F00300404948600846406840F0020001
:10039000486000BF3C48406800F00C000828F9D1D4
:1003A0000CBD10B5FFF792FF10BD10B536480068C0
:1003B00040F001003449086008464068344908406C
:1003C0003149486008460068324908402E490860B3
:1003D0000846006820F4802008600846406820F441
:1003E000FE0048604FF41F008860FFF7DAFF4FF00F
:1003F00000602949086010BD10B5002100200022CE
:10040000214B5B6803F00C0121B1042906D00829B7
:1004100028D107E0214B224C236027E01F4B204CC2
:10042000236023E0184B5B6803F47010164B5B6885
:1004300003F48032022303EB904022B9194B43436B
:10044000174C23600DE0104B5B6803F4003323B1BD
:10045000144B4343124C236003E0104B4343104CB6
:10046000236003E00D4B0E4C236000BF00BF064B22
:100470005B68C3F303130C4CE15C094B1B68CB4076
:10048000074C236010BD0000001002400020024015
:100490000000FFF8FFFFF6FE08ED00E000127A0012
:1004A0000000002000093D000400002008B50121E3
:1004B000242001F067F84FF48070ADF800001020A0
:1004C0008DF8030003208DF802006946094800F00A
:1004D0009DFD4FF48071074800F045FE0420ADF803
:1004E00000006946044800F091FD0421024800F034
:1004F0003AFE08BD00080140001401400020FE49FA
:100500000870FE490870FE490870FE490880FE49DF
:100510000880FE49088070472DE9F0410024FC481E
:100520000078012802D02046BDE8F081F748008815
:1005300005287AD0A0F20510002865D0A0F2FC5062
:10054000002871D1F348C569284601F0CFFB074662
:10055000F14901F0E3FB064601F09CFBEF4A106015
:100560005160EC488569284601F0C0FB0746EA491E
:1005700001F0D4FB064601F08DFBE84A083210601A
:100580005160E448456A284601F0B0FB0646E4495C
:1005900001F0C4FBE1490939C1F81900DD49486B94
:1005A00001F0A4FB0646DE4901F0B8FBDB4909393E
:1005B000C1F81D00D749086B01F098FB0646D849E1
:1005C00001F0ACFBD5490939C1F82100D149886B4C
:1005D00001F08CFB0646D24901F0A0FBCF49093956
:1005E000C1F82500CB48B0F858004885C948407D7F
:1005F00081F82C00C748007D81F82D00C548C07DDA
:1006000081F82900012420E0C6480078012808D19B
:10061000C0480088C4490988884202D10220C149E3
:100620000870012411E000E00EE0BE4800780128C7
:1006300008D1B8480088BC490988884202D1032003
:10064000B8490870012400E000BF00BF20466BE7F6
:1006500010B501460022AF4BAB4800881954AA4898
:100660000088401C80B2A84C2080A64C2488A04260
:1006700000DB0122D0B210BDA049097801449F4A95
:1006800011709F490978127811449D4A1170704782
:10069000002001219E4A11709C490988A1F2051190
:1006A00081B1A1F2FC51E1B9A049097811B9002149
:1006B000117006E0934909885C2902D00321944A0D
:1006C000117012E08F490988022903D00321904A52
:1006D000117005E09549097811B100218C4A11701B
:1006E00003E002218A4A117000BF00BF88490978DF
:1006F00039B1012904D0022905D0032907D104E02A
:1007000000BF002005E0012003E0012001E00120FE
:1007100000BF00BF704770B50446002576480078DA
:10072000092874D2DFE800F0050B141D2A334C5D54
:100730006800B52C02D101206F49087068E0622C76
:1007400003D102206C49087001E0FFF7D7FE5FE09B
:100750002046FFF791FF6D4804800320664908702A
:1007600056E02046FFF788FF6848008840EA0420EA
:100770006649088004206049087049E02046FFF778
:100780007BFF6048048005205B49087040E02046FC
:10079000FFF772FF5B48008840EA0420594908804F
:1007A000FFF776FF10B1FFF7A9FE08E05548008873
:1007B000002801DD062000E007204F49087027E0EF
:1007C0002046FFF759FF00BF2046FFF741FF0546CF
:1007D00000BF00BF002D02DD07204749087000253B
:1007E00016E046480078A04202D0FFF787FE02E0FC
:1007F0000820414908700BE041480078A04202D12E
:10080000FFF78AFE0546FFF779FE01E0FFE700BF2C
:1008100000BF284670BDF0B5A7B007460024384693
:1008200000F0AFF915E001A9962000F087FA06461E
:10083000002E0ADD002506E001A9485DFFF76BFFE9
:100840000443681C85B2B542F6DB002C00DD04E0F1
:1008500000BF00F0AFF90028E5D100BF002C01DD9A
:10086000002400E0012400F09AF9FFF747FE20463B
:1008700027B0F0BD70B505460C4601202949087027
:1008800029480580FFF73AFE2046FFF7C4FF2548B8
:100890000078022801D1002070BD00202149087095
:1008A0000120F9E730B50346002009E014781D5C0B
:1008B0002C441470547815782C445470441CA0B205
:1008C0008842F3DB30BD2DE9FE4380460E461546D7
:1008D000174903C9CDE9010100200090ADF8068059
:1008E000ADF808506A460421901DFFF7DBFF002D8C
:1008F00023DD6A4629461DE0190000201B00002068
:100900001C0000201E0000202000002016000020F7
:100910001A0000204C00002095BFD633B100002003
:100920006F12833A180000201400002022000020DB
:10093000B41E00083046FFF7B5FF01AF002404E005
:10094000385D00F049FA601C84B2062CF8D300240C
:1009500004E0305D00F040FA601C84B2AC42F8DB89
:100960006F46002404E0385D00F036FA601C84B263
:10097000022CF8D3BDE8FE8300B593B014210EA875
:1009800001F0E4F801208DF838004FF40D600F906D
:100990004FF4E13010900120ADF84400ADF846006E
:1009A0000CE014220EA90620FFF78DFFFA21062085
:1009B000FFF760FF002800DD00E000E0F1E700BF86
:1009C00000200C900D906420ADF830000120ADF8AF
:1009D00032000020ADF834000EE006220CA940F6EB
:1009E0000600FFF770FFFA2140F60600FFF742FF0E
:1009F000002800DD00E000E0EFE700BF242103A8AD
:100A000001F0A4F80520ADF80C0007208DF80E00C9
:100A100002208DF80F000EE0242203A942F20640C6
:100A2000FFF751FFFA2142F20640FFF723FF0028AB
:100A300000DD00E000E0EFE700BF00200190029041
:100A400040F20170ADF8040001208DF807000EE0BF
:100A5000082201A94FF48370FFF735FFFA214FF404
:100A60008370FFF707FF002800DD00E000E0EFE7FC
:100A700000BF01200F49087024200F49087045204D
:100A80004870582088705920C8704620087130205E
:100A9000A1F805001420C87108724FF47C50C88575
:100AA0000648006808B9012000E0002003490860FA
:100AB00013B000BD22000020A8000020A0012142A8
:100AC00010B56FF0040001F014F844480068444980
:100AD000B0FBF1F0434908700846007800EB400194
:100AE000C1EBC0104FF6FF7101EAC0003E4908801B
:100AF00010BD01463B4A12784A434FF0E0235A6149
:100B000000229A611A46126942F001021A6100BF7E
:100B10004FF0E022106900F001021AB100F48032B7
:100B2000002AF5D04FF0E022126922F001024FF0C6
:100B3000E0231A6100229A61704701462A4A12880E
:100B40004A434FF0E0235A6100229A611A46126923
:100B500042F001021A6100BF4FF0E022106900F07C
:100B600001021AB100F48032002AF5D04FF0E022E1
:100B7000126922F001024FF0E0231A6100229A610B
:100B800070471949098841434FF0E0225161002123
:100B900091611146096941F00301116170474FF0FD
:100BA000E020006920F003004FF0E0210861002000
:100BB000886170474FF0E02081690B480088B1FBE5
:100BC000F0F070474FF0E020006920F003004FF094
:100BD000E0210861002088617047000000000020CB
:100BE00000127A002400002026000020014600BFE9
:100BF000704700BFBB4A128802F04002002AF9D0B9
:100C0000C2B2B84B1B1D1A80704710B586B004469F
:100C1000012144F2040000F0B5FC4FF40070ADF87F
:100C2000140003208DF8160018208DF8170005A970
:100C3000AD4800F0EBF94FF48060ADF814000420EB
:100C40008DF8170005A9A84800F0E0F925208DF8D7
:100C5000000003208DF801008DF8020001208DF8BE
:100C60000300684600F0FBFE01940020ADF8080088
:100C7000ADF80A00ADF80C00ADF810000C20ADF88E
:100C80000E0001A9974800F024FD012240F22551F1
:100C9000944800F0B6FD0121924800F0A6FD06B090
:100CA00010BD10B586B004460121042000F06AFC96
:100CB0000121480400F073FC0420ADF81400032067
:100CC0008DF8160018208DF8170005A9864800F049
:100CD0009DF90820ADF8140004208DF8170005A92F
:100CE000814800F093F926208DF8000003208DF84C
:100CF00001008DF8020001208DF80300684600F025
:100D0000AEFE01940020ADF80800ADF80A00ADF881
:100D10000C00ADF810000C20ADF80E0001A97348CE
:100D200000F0D7FC012240F22551704800F069FD27
:100D300001216E4800F059FD06B010BD2DE9F041CB
:100D400006460F466A48008810B90020BDE8F081C9
:100D50000025002240F22551644800F052FD64480D
:100D60000088B04202DA6248008800E0304605465A
:100D7000002410E05F48008820444FF4FA6190FBA3
:100D8000F1F201FB12001FFA80F85B4810F808002E
:100D90003855601C84B2AC42ECDB55480088864272
:100DA00002D100205549087051480088401B504925
:100DB00008805048008828444FF4FA6190FBF1F213
:100DC00001FB12004B490880012240F2255147489F
:100DD00000F017FD2846B9E700BF4449098801F033
:100DE00040010029F9D04149091D0880704710B51C
:100DF00040F225513B4800F0E9FD10B3394800F0BE
:100E000065FDC4B23E48008800F40040C8B93C48C3
:100E1000008800F4804060B10A2C03D000203849DB
:100E2000088021E03648008840F4004034490880BA
:100E30001AE00D2C06D13248008840F48040304939
:100E4000088011E02E480088C0F30D002D490C5495
:100E50002B480088401C2A49088008460088B0F5C5
:100E6000FA6F01DB0020088010BD10B540F225515B
:100E70001E4800F0ABFDA0B320480078002811DD2B
:100E8000214800881B49098888420BD119480088ED
:100E9000401C1849088008460088B0F5FA6F01DB4D
:100EA00000200880114800F011FD1349164A1288ED
:100EB000885415480088401C13490880084600885B
:100EC000B0F5FA6F01DB0020088009480088401C5B
:100ED00080B207490880B0F5FA6F02DD4FF4FA607E
:100EE000088010BD00380140000801400044004067
:100EF0002E00002030000020A80800203400002030
:100F00002C000020D8000020320000200948804733
:100F100009480047FEE7FEE7FEE7FEE7FEE7FEE7DB
:100F2000FEE7FEE7FEE7FEE704480549054A064BF3
:100F300070470000AB03000831010008D810002002
:100F4000D8160020D8120020D812002010B5044670
:100F5000CC48844208D10121042000F02DFB00215F
:100F6000042000F029FB46E0C748844208D1012153
:100F7000082000F021FB0021082000F01DFB3AE0D2
:100F8000C248844208D10121102000F015FB002145
:100F9000102000F011FB2EE0BD48844208D1012151
:100FA000202000F009FB0021202000F005FB22E0BA
:100FB000B848844208D10121402000F0FDFA002108
:100FC000402000F0F9FA16E0B348844208D101212C
:100FD000802000F0F1FA0021802000F0EDFA0AE014
:100FE000AE48844207D10121801500F0E5FA0021C6
:100FF000A01500F0E1FA10BD10B50121084600F07F
:10100000DBFA0021012000F0D7FA10BD2DE9F041F4
:10101000024600250026002000230024002791F826
:1010200003C00CF00F0591F803C00CF0100CBCF1DC
:10103000000F03D091F802C04CEA050591F800C0FA
:10104000BCF1000F31D0146800202BE04FF0010CF0
:101050000CFA00F3B1F800C00CEA03069E4220D15E
:1010600083004FF00F0C0CFA03F7BC4305FA03FCA6
:101070004CEA040491F803C0BCF1280F06D14FF0EC
:10108000010C0CFA00FCC2F814C00AE091F803C08D
:10109000BCF1480F05D14FF0010C0CFA00FCC2F86E
:1010A00010C0401C0828D1D31460B1F800C0BCF1B6
:1010B000FF0F34DD546800202EE000F1080C4FF0E3
:1010C000010808FA0CF3B1F800C00CEA03069E42CE
:1010D00021D183004FF00F0C0CFA03F7BC4305FA43
:1010E00003FC4CEA040491F803C0BCF1280F05D1BD
:1010F00000F1080C08FA0CF8C2F8148091F803C04B
:10110000BCF1480F07D100F1080C4FF0010808FAB4
:101110000CF8C2F81080401C0828CED35460BDE8FB
:10112000F0814FF6FF710180022181700421C170AE
:1011300070470246002093680B400BB1012000E08D
:10114000002070470146886880B270470246002040
:10115000D3680B400BB1012000E00020704701462E
:10116000C86880B2704701617047416170470AB139
:10117000016100E041617047C16070474FF4803207
:101180000A43826181618261826982697047024695
:101190000020434B18684FF68073184040EA021055
:1011A00008433F4B186070473E49C8617047F0B52F
:1011B0000A46002300240021002500F00046B6F175
:1011C000004F02D1364EF16901E0354E7168C0F32F
:1011D000034583B200F44016B6F5401F08D121F054
:1011E00070612F4E766826F070662D4F7E6012E09B
:1011F00000F48016B6F5801F06D1032606FA05F422
:10120000A14341F0706106E0460D360103FA06F68F
:10121000B14341F0706122B1460D360103FA06F682
:10122000314300F00046B6F1004F02D11C4EF1618F
:1012300001E01B4E7160F0BD30B500228B071C0F22
:101240000F2303FA04F2164B08338C1053F82430A2
:101250009343134C08348D1044F8253023468C10EA
:1012600053F824308C07240F00FA04F423430C4C69
:1012700008348D1044F8253030BD0A49DC3108604F
:101280007047000000080140000C014000100140C0
:101290000014014000180140001C014000200140E2
:1012A0000000014000002042DF48006840F00100DB
:1012B000DD49086008464068DC490840DA49486072
:1012C00008460068DA490840D749086008460068BF
:1012D00020F4802008600846406820F4FE00486042
:1012E0004FF41F0088607047CF49096821F48031AE
:1012F000CD4A11601146096821F480211160B0F5D2
:10130000803F03D0B0F5802F0ED106E0C6490968B2
:1013100041F48031C44A116007E0C349096841F4CF
:10132000A021C14A116000E000BF00BF704710B5A6
:1013300001460022002300204A11012A02D1BA4CA2
:10134000236806E0022A02D1B74C236A01E0B64CBA
:10135000636A01F01F02012494401C400CB101207B
:1013600000E0002010BD38B50020009000240025CA
:1013700000BF3120FFF7DBFF05460098401C0090BE
:101380000098B0F5A06F01D0002DF2D03120FFF70A
:10139000CEFF08B1012400E00024204638BD0146FC
:1013A0000020A14A106820F0F80040EAC100106057
:1013B0007047A04908607047024600209A4B586861
:1013C00020F47C1042EA01031843974B58607047A1
:1013D00098490866704701460020934A506820F0FB
:1013E00003000843506070478F48406800F00C00CD
:1013F0007047014600208C4A506820F0F0000843F6
:101400005060704701460020874A506820F4E06031
:1014100008435060704701460020834A506820F41A
:10142000605040EAC1005060704729B17E4A527A4C
:1014300002437D4B5A7204E07B4A527A82437A4BD4
:101440005A7270477B49D8310860704701460020C6
:10145000754A506820F440400843506070470021AE
:10146000714A20321170704A82F82010012802D08F
:1014700004280AD104E001216B4A2032117005E0F2
:101480000521694A2032117000E000BF00BF70479B
:101490006949086070476449096A0143624A1162F8
:1014A0007047654944390860704730B50021002213
:1014B000002400235C4D6D6805F00C0121B1042966
:1014C00005D0082923D105E05C4D056022E05B4D85
:1014D00005601FE0544D6D6805F47012524D6D6843
:1014E00005F48034022505EB92421CB9544D554356
:1014F00005600BE04C4D6D6805F400351DB1504D95
:101500005543056002E04D4D5543056002E04B4DEB
:10151000056000BF00BF444D6D6805F0F00109098A
:10152000484D6B5C0568DD4045603F4D6D6805F4D6
:10153000E061090A434D6B5C4568DD4085603A4DCA
:101540006D6805F46051C90A3E4D6B5C4568DD402D
:10155000C560354D6D6805F44041890B3A4D6B5CB3
:10156000C568B5FBF3F5056130BD29B12E4A526956
:1015700002432D4B5A6104E02B4A526982432A4BA5
:101580005A61704729B1284A92690243264B9A61F1
:1015900004E0254A92698243234B9A61704729B13E
:1015A000214AD2690243204BDA6104E01E4AD26923
:1015B00082431D4BDA61704729B11B4AD26802434E
:1015C000194BDA6004E0184AD2688243164BDA609D
:1015D000704729B1144A12690243134B1A6104E09F
:1015E000114A12698243104B1A61704712494039FF
:1015F000086070470F49C86470470B49C87170474D
:101600000948406A40F080700749486270470146C7
:101610000020054A92680A400AB1012000E000203B
:101620007047014988727047001002400000FFF8BF
:10163000FFFFF6FE000042428004424200127A00A0
:1016400000093D00350000204500002010B504468B
:10165000FB48844209D101218803FFF7ADFF002137
:101660004FF48040FFF7A8FF32E0F648844209D1EA
:1016700001214804FFF7ADFF00214FF40030FFF7D0
:10168000A8FF25E0F048844209D101218804FFF732
:10169000A0FF00214FF48020FFF79BFF18E0EB48EC
:1016A000844209D10121C804FFF793FF00214FF4C0
:1016B0000020FFF78EFF0BE0E548844208D10121AE
:1016C0000805FFF786FF00214FF48010FFF781FF28
:1016D00010BD2DE9F04786B005460E460024A2460F
:1016E00000BFA1460027B08900B100BF2F462C8A59
:1016F0004CF6FF700440F08804432C82AC894EF60F
:10170000F3100440B08831890843718908430443C9
:10171000AC81AC8A4FF6FF400440B0890443AC82F0
:1017200001A8FFF7C2FEC648874202D1DDF810A02B
:1017300001E0DDF80CA0A88900F4004040B10AEBFC
:10174000CA0000EB0A1031684900B0FBF1F807E06D
:101750000AEBCA0000EB0A1031688900B0FBF1F80F
:101760006420B8FBF0F004012009642101FB10891A
:10177000A88900F4004040B1322000EBC900B0FB62
:10178000F1F000F00700044308E0322000EB0910FC
:101790006421B0FBF1F000F00F0004432C8106B08F
:1017A000BDE8F0874FF41651016000218180C180AF
:1017B00001810C21418100218181704710B50246D1
:1017C0000020108A4FF2FF0318400B884C882343F7
:1017D0008C882343CC8823431843108210BD0021FA
:1017E000018041808180C180704721B1828942F4AB
:1017F0000052828104E082894DF6FF731A40828193
:101800007047F0B50346002400260025002040F66E
:101810006A17B94200D100BF1846C1F3421401F063
:101820001F06012707FA06F5012C01D10C3004E050
:10183000022C01D1103000E014301AB107682F4398
:10184000076002E00768AF430760F0BD1AB1838A02
:101850000B43838202E0838A8B4383827047028A30
:101860004FF6F0731A400282028A0A4302827047DE
:1018700082894FF2FF731A40828182890A438281F2
:10188000704721B1828942F00202828104E082899C
:101890004FF6FD731A4082817047028A4FF6DF735C
:1018A0001A400282028A0A430282704721B1028AE8
:1018B00042F48042028204E0028A4BF6FF731A402F
:1018C00002827047C1F3080282807047014688880F
:1018D000C0F308007047818941F0010181817047A0
:1018E000028BD2B20283028B42EA0122028370474A
:1018F000028B02F47F420283028B0A430283704709
:1019000021B1828A42F02002828204E0828A4FF66C
:10191000DF731A408282704721B1828A42F010023E
:10192000828204E0828A4FF6EF731A408282704707
:1019300021B1828A42F00802828204E0828A4FF654
:10194000F7731A408282704721B1828942F40042C3
:10195000828103E08289C2F30E028281704721B145
:10196000828A42F40062828204E0828A4FF2FF732C
:101970001A4082827047828A4FF6FB731A40828235
:10198000828A0A438282704721B1828A42F002022F
:10199000828204E0828A4FF6FD731A408282704789
:1019A00002460020B1F5007F00D100BF13880B4034
:1019B0000BB1012000E00020704701F40072B2F585
:1019C000007F00D100BFCA430280704770B5024655
:1019D000002400230025002040F66A16B14200D101
:1019E00000BFC1F3421501F01F03012606FA03F3FD
:1019F000012D02D19689334006E0022D02D1168ACC
:101A0000334001E0968A33400C12012606FA04F4B2
:101A10001688344013B10CB1012000E0002070BDE5
:101A200010B50022002340F66A14A14200D100BF85
:101A30000A1201249440A3B2DC43048010BD0000CC
:101A4000003801400044004000480040004C004085
:101A50000050004031490143314A1160704770B570
:101A6000002100230F22C47804B32D4C246804F411
:101A7000E064C4F5E064210AC1F10403CA4044787B
:101A800004FA03F18478144021430901254C0678B7
:101A9000A155047804F01F050124AC4005786D11B0
:101AA000AD0005F1E025C5F8004109E0047804F037
:101AB0001F050124AC401C4D0678761145F82640E0
:101AC00070BD1A4A0A400243154B1B1F1A6070472B
:101AD00039B1134A121D12680243114B1B1D1A60C3
:101AE00006E00F4A121D126882430D4B1B1D1A603F
:101AF0007047042808D14FF0E021096941F0040142
:101B00004FF0E022116107E04FF0E021096921F078
:101B100004014FF0E0221161704700000000FA0557
:101B20000CED00E000E400E080E100E080FFFF1F3A
:101B3000704700000FB4044910B503AA029800F0E2
:101B400031F810BC5DF814FB280000204FF00002B3
:101B500000B5134694469646203922BFA0E80C50A3
:101B6000A0E80C50B1F12001BFF4F7AF090728BF7E
:101B7000A0E80C5048BF0CC05DF804EB890028BFFA
:101B800040F8042B08BF704748BF20F8022B11F023
:101B9000804F18BF00F8012B70477047704770479F
:101BA00070470000074B70B50D467B4400F011F8FC
:101BB0000446284600F020F810B14FF0FF3070BD09
:101BC000204670BD45F0FFFF01694A1C026108789C
:101BD000704700B58FB0CDE901310021059105496D
:101BE0007944CDE903101146684600F02EF80FB095
:101BF00000BD0000E5FFFFFF007B00F080007047A4
:101C0000754600F03DF8AE4605006946534620F0A3
:101C10000700854618B020B5FFF786F9BDE82040DB
:101C20004FF000064FF000074FF000084FF0000B98
:101C300021F00701AC46ACE8C009ACE8C009ACE84B
:101C4000C009ACE8C0098D4670472DE9F041064651
:101C50000024D6E90170F5688046304603E041462D
:101C6000B847641C3046A8470028F8D12046BDE894
:101C7000F0810446AFF300802046FEF7A0FA000092
:101C800000487047781000200808A0F500114FEABE
:101C90003101704743004FEAD30C4FEA3C0C4340FC
:101CA0001FBF40070CF1605113F0FE4F70471CF04E
:101CB000006F03D100200CF0004170470CF000438E
:101CC00043EA507010B540EACC0000F0A8F800BF1D
:101CD000000000924FEA0001FFF7D6BF4FF000412D
:101CE0004FF00000A1F500217047000010F0004106
:101CF00048BF4042B0FA80F310FA03F2C3F19D03EB
:101D00000BD051EAC35101EB1220530638BF704784
:101D100000F1010008BF20F0010070474FF47F0C74
:101D20001CEAD0121EBF1CEAD11392EA0C0F93EAF0
:101D30000C0F00F0478090EA010F48BF42F4807218
:101D40004FF0004C4CEA00204CEA012102EB030268
:101D5000A0FB0113A2F50002002918BF43F0010304
:101D60005B0028BF4FEA330342EB22425FEA132CA9
:101D70004CEBC2502EBFBCEB436FB2F57C0F7047EB
:101D80004FEA036CBCF1004F08BF20F00100B2F530
:101D90007C0F38BF70470BD582F0FF0212F5803FF1
:101DA000C8BF704700F1C040D8BF00F00040704786
:101DB00000F5000C5FEA4C0C48BF7047B0F1C04022
:101DC00000F073B890EA010F0CEAD11348BF42F457
:101DD0008072624538BF634504D280EA010000F09A
:101DE0000040704710B500F01AF800BF8900013EAE
:101DF00000F007B800F009B85FEA410C5FEA1C6C1C
:101E000008D080EA010000F050B85FEA400C5FEAB9
:101E10001C6CF6D14FF00040A0F5800070470EF129
:101E2000020E2EF0030E5EF8044B244204D44FEA57
:101E30004102B2F17F4F11D84FEA4003B3F17F4F17
:101E40000CD80ED14FEAD07CB2F17F4F0CEB4C0C8A
:101E50000CF1020C08BF4CEBD17C04E04FF0080CF5
:101E600001E04FEAD17C0CEB4C0324FA03F404F0BC
:101E70000704B4F1040C06D20EEB840CBDE810404C
:101E80004CF0010C6047DFE80CF0070802024FF04D
:101E90000040A0F5800010BD0846420018BFD2F1F6
:101EA000807288BF00F0004010BDFF2141EAD05091
:101EB000C0057047B562000000000000DC1E00088D
:101EC000000000204C0000006C010008281F0008E2
:101ED0004C0000208C1600008801000800A24A0473
:101EE00000000000000000000102030406070809CA
:101EF00000000000000000000000000000000000E2
:101F000000000000000000000000000000000000D1
:101F10000000000000010203040102030406070898
:081F200009020406080000009C
:0400000508000131BD
:00000001FF
